:100000001CC036C035C034C0EBC032C031C030C0B7
:1000100070C02EC02DC02CC02BC02AC029C028C043
:1000200027C026C025C05EC04DC04EC04FC050C0C6
:1000300051C052C058C052C053C011241FBECFE59A
:10004000D4E0DEBFCDBF10E0A0E6B0E0EEE5F2E028
:1000500002C005900D92A236B107D9F710E0A2E6D2
:10006000B0E001C01D92A536B107E1F7E4D0F5C0BC
:10007000C7CF81B38F6381BB08958EB584608EBD79
:1000800089B7846089BF1DBC1CBC7894089582B573
:10009000886082BD14BC85B5856085BD89B78064E4
:1000A00089BF789408958CE287BB81E58DB9089566
:1000B0009BEF98BBE82FF0E0EA30F105A0F4ED5E8D
:1000C000FF4F099486E00FC08BE50DC08FE40BC095
:1000D00086E609C08DE607C08DE705C08FE703C03F
:1000E0008FE601C08FE38FB9779BFECF84E088BB9A
:1000F00008951F920F920FB60F9211242F933F93E2
:100100004F935F936F937F938F939F93AF93BF931F
:10011000EF93FF9380916000843051F1853040F47B
:100120008230A9F08330E0F4813009F03FC007C08D
:10013000863079F1863028F18730C1F533C08EEFF3
:1001400082BB809164006AE07CD0B2DF2FC08DEF6B
:1001500082BB809164006AE074D0892FA9DF26C039
:100160008BEF82BB809163006AE06BD0A1DF1EC081
:1001700087EF82BB809163006AE063D0892F98DFAC
:1001800015C08FEE82BB809162006AE05AD090DF8A
:100190000DC08FED82BB809162006AE052D0892F42
:1001A00087DF04C0109260008FEF82BB80916000F7
:1001B0008F5F8093600084E19FEF9DBD8CBDFF91B8
:1001C000EF91BF91AF919F918F917F916F915F91CF
:1001D0004F913F912F910F900FBE0F901F90189548
:1001E0001F920F920FB60F9211248F93809162008D
:1001F0008F5F809362008C3338F0109262008091A0
:1002000063008F5F80936300809163008C3338F0CC
:1002100010926300809164008F5F809364008091EE
:100220006400883110F0109264008F910F900FBE1F
:100230000F901F9018951DDF36DF1FDF28DF7894A1
:10024000FFCF991B79E004C0991F961708F0961B01
:0E025000881F7A95C9F780950895F894FFCF1E
:02025E0001009D
:00000001FF
